{
  "contractName": "MyContract",
  "abi": [
    {
      "inputs": [],
      "stateMutability": "nonpayable",
      "type": "constructor"
    },
    {
      "inputs": [
        {
          "internalType": "uint256",
          "name": "_data",
          "type": "uint256"
        }
      ],
      "name": "setData",
      "outputs": [],
      "stateMutability": "nonpayable",
      "type": "function"
    },
    {
      "inputs": [],
      "name": "getData",
      "outputs": [
        {
          "internalType": "uint256",
          "name": "",
          "type": "uint256"
        }
      ],
      "stateMutability": "view",
      "type": "function",
      "constant": true
    },
    {
      "inputs": [],
      "name": "getOwner",
      "outputs": [
        {
          "internalType": "address",
          "name": "",
          "type": "address"
        }
      ],
      "stateMutability": "view",
      "type": "function",
      "constant": true
    },
    {
      "inputs": [],
      "name": "isOwner",
      "outputs": [
        {
          "internalType": "bool",
          "name": "",
          "type": "bool"
        }
      ],
      "stateMutability": "view",
      "type": "function",
      "constant": true
    },
    {
      "inputs": [],
      "name": "getCaller",
      "outputs": [
        {
          "internalType": "address",
          "name": "",
          "type": "address"
        }
      ],
      "stateMutability": "view",
      "type": "function",
      "constant": true
    }
  ],
  "bytecode": "0x608060405234801561001057600080fd5b5033600160006101000a81548173ffffffffffffffffffffffffffffffffffffffff021916908373ffffffffffffffffffffffffffffffffffffffff1602179055506102c3806100616000396000f3fe608060405234801561001057600080fd5b50600436106100575760003560e01c80633bc5de301461005c5780635b4b73a91461007a578063893d20e8146100965780638f32d59b146100b4578063ab470f05146100d2575b600080fd5b6100646100f0565b6040516100719190610213565b60405180910390f35b610094600480360381019061008f9190610187565b6100f9565b005b61009e610103565b6040516100ab91906101dd565b60405180910390f35b6100bc61012d565b6040516100c991906101f8565b60405180910390f35b6100da61016a565b6040516100e791906101dd565b60405180910390f35b60008054905090565b8060008190555050565b6000600160009054906101000a900473ffffffffffffffffffffffffffffffffffffffff16905090565b6000610137610103565b73ffffffffffffffffffffffffffffffffffffffff163373ffffffffffffffffffffffffffffffffffffffff1614905090565b600033905090565b60008135905061018181610276565b92915050565b60006020828403121561019957600080fd5b60006101a784828501610172565b91505092915050565b6101b98161022e565b82525050565b6101c881610240565b82525050565b6101d78161026c565b82525050565b60006020820190506101f260008301846101b0565b92915050565b600060208201905061020d60008301846101bf565b92915050565b600060208201905061022860008301846101ce565b92915050565b60006102398261024c565b9050919050565b60008115159050919050565b600073ffffffffffffffffffffffffffffffffffffffff82169050919050565b6000819050919050565b61027f8161026c565b811461028a57600080fd5b5056fea26469706673582212200afdf51bad3d9f3c51b66f0d11d35f320357f37c94e505b6dbda0873e633262c64736f6c63430008000033",
  "immutableReferences": {},
  "source": "// SPDX-License-Identifier: MIT\npragma solidity ^0.8.0;\n\ncontract MyContract{\n    uint data;\n\n    address owner;\n\n    constructor()  {\n        owner = msg.sender;\n    }\n\n    function setData(uint _data) public {\n        data = _data;\n    }\n\n    function getData() public view returns(uint){\n        return data;\n    }\n\n    function getOwner() public view returns(address){\n        return owner;\n    }\n\n    function isOwner() public view returns(bool){\n        return msg.sender == getOwner();\n    }\n\n    function getCaller() public view returns(address){\n        return (msg.sender);\n    }\n}\n",
  "sourcePath": "/Users/sourabhagrawal/Documents/Workplace/GitRepo/ItemManager/contracts/MyContract.sol",
  "compiler": {
    "name": "solc",
    "version": "0.8.0+commit.c7dfd78e.Emscripten.clang"
  },
  "schemaVersion": "3.4.3",
  "updatedAt": "2021-12-02T19:41:36.746Z",
  "networkType": "ethereum",
  "devdoc": {
    "kind": "dev",
    "methods": {},
    "version": 1
  },
  "userdoc": {
    "kind": "user",
    "methods": {},
    "version": 1
  }
}